{
  "address": "0x0DCd1Bf9A1b36cE34237eEaFef220932846BCD82",
  "abi": [
    {
      "inputs": [],
      "name": "VERSION",
      "outputs": [
        {
          "internalType": "uint256",
          "name": "",
          "type": "uint256"
        }
      ],
      "stateMutability": "view",
      "type": "function"
    },
    {
      "inputs": [
        {
          "internalType": "address",
          "name": "user",
          "type": "address"
        }
      ],
      "name": "getValueByAddress",
      "outputs": [
        {
          "internalType": "uint256",
          "name": "",
          "type": "uint256"
        }
      ],
      "stateMutability": "view",
      "type": "function"
    },
    {
      "inputs": [
        {
          "internalType": "uint256",
          "name": "_initValue",
          "type": "uint256"
        }
      ],
      "name": "initialize",
      "outputs": [],
      "stateMutability": "nonpayable",
      "type": "function"
    },
    {
      "inputs": [],
      "name": "initialized",
      "outputs": [
        {
          "internalType": "bool",
          "name": "",
          "type": "bool"
        }
      ],
      "stateMutability": "view",
      "type": "function"
    },
    {
      "inputs": [
        {
          "internalType": "uint256",
          "name": "_newValue",
          "type": "uint256"
        }
      ],
      "name": "setValue",
      "outputs": [],
      "stateMutability": "nonpayable",
      "type": "function"
    },
    {
      "inputs": [],
      "name": "value",
      "outputs": [
        {
          "internalType": "uint256",
          "name": "",
          "type": "uint256"
        }
      ],
      "stateMutability": "view",
      "type": "function"
    }
  ],
  "transactionHash": "0x84d45f95895b4e40066690f955e2d016ba07f21b9bfe13b709b73ef7f4cce0fa",
  "args": [],
  "numDeployments": 2,
  "solcInputHash": "d9baef7033ad90b9c9c2428b93c5ea78",
  "bytecode": "0x608060405234801561001057600080fd5b50610228806100206000396000f3fe608060405234801561001057600080fd5b50600436106100625760003560e01c8063158ef93e146100675780633fa4f2451461008957806355241077146100a0578063a362c161146100b5578063fe4b84df146100de578063ffa1ad74146100f1575b600080fd5b6000546100749060ff1681565b60405190151581526020015b60405180910390f35b61009260015481565b604051908152602001610080565b6100b36100ae36600461017e565b6100f9565b005b6100926100c3366004610197565b6001600160a01b031660009081526002602052604090205490565b6100b36100ec36600461017e565b61011c565b610092600281565b6101048160026101c7565b60018190553360009081526002602052604090205550565b60005460ff161561016a5760405162461bcd60e51b81526020600482015260146024820152734f6e6c7920696e697469616c697a65206f6e636560601b604482015260640160405180910390fd5b60019081556000805460ff19169091179055565b60006020828403121561019057600080fd5b5035919050565b6000602082840312156101a957600080fd5b81356001600160a01b03811681146101c057600080fd5b9392505050565b80820281158282048414176101ec57634e487b7160e01b600052601160045260246000fd5b9291505056fea2646970667358221220f48eccf1389d46306d0246ed35f8a0703afaa19213da013d0509b13c02e82cf664736f6c63430008120033",
  "devdoc": {
    "kind": "dev",
    "methods": {},
    "version": 1
  },
  "userdoc": {
    "kind": "user",
    "methods": {},
    "version": 1
  },
  "storageLayout": {
    "storage": [
      {
        "astId": 1154,
        "contract": "contracts/Impl/StandardImplv2.sol:StandardImplv2",
        "label": "initialized",
        "offset": 0,
        "slot": "0",
        "type": "t_bool"
      },
      {
        "astId": 1156,
        "contract": "contracts/Impl/StandardImplv2.sol:StandardImplv2",
        "label": "value",
        "offset": 0,
        "slot": "1",
        "type": "t_uint256"
      },
      {
        "astId": 1160,
        "contract": "contracts/Impl/StandardImplv2.sol:StandardImplv2",
        "label": "name",
        "offset": 0,
        "slot": "2",
        "type": "t_mapping(t_address,t_uint256)"
      }
    ],
    "types": {
      "t_address": {
        "encoding": "inplace",
        "label": "address",
        "numberOfBytes": "20"
      },
      "t_bool": {
        "encoding": "inplace",
        "label": "bool",
        "numberOfBytes": "1"
      },
      "t_mapping(t_address,t_uint256)": {
        "encoding": "mapping",
        "key": "t_address",
        "label": "mapping(address => uint256)",
        "numberOfBytes": "32",
        "value": "t_uint256"
      },
      "t_uint256": {
        "encoding": "inplace",
        "label": "uint256",
        "numberOfBytes": "32"
      }
    }
  }
}