{
  "address": "0xeFcd59583ADAB476de049d6E7e3582bD0df9E3Ca",
  "abi": [
    {
      "inputs": [],
      "name": "VERSION",
      "outputs": [
        {
          "internalType": "uint256",
          "name": "",
          "type": "uint256"
        }
      ],
      "stateMutability": "view",
      "type": "function"
    },
    {
      "inputs": [
        {
          "internalType": "uint256",
          "name": "_initValue",
          "type": "uint256"
        }
      ],
      "name": "initialize",
      "outputs": [],
      "stateMutability": "nonpayable",
      "type": "function"
    },
    {
      "inputs": [],
      "name": "initialized",
      "outputs": [
        {
          "internalType": "bool",
          "name": "",
          "type": "bool"
        }
      ],
      "stateMutability": "view",
      "type": "function"
    },
    {
      "inputs": [
        {
          "internalType": "uint256",
          "name": "_newValue",
          "type": "uint256"
        }
      ],
      "name": "setValue",
      "outputs": [],
      "stateMutability": "nonpayable",
      "type": "function"
    },
    {
      "inputs": [],
      "name": "value",
      "outputs": [
        {
          "internalType": "uint256",
          "name": "",
          "type": "uint256"
        }
      ],
      "stateMutability": "view",
      "type": "function"
    }
  ],
  "transactionHash": "0x0735cf3ad2e68f857b7636b06dfcd0754f8c1243a1f291aed7a14ab5d0ab6b82",
  "args": [],
  "numDeployments": 2,
  "solcInputHash": "7cbdab438d7120c52354b038ef2810a5",
  "bytecode": "0x608060405234801561001057600080fd5b506101ae806100206000396000f3fe608060405234801561001057600080fd5b50600436106100575760003560e01c8063158ef93e1461005c5780633fa4f2451461007e5780635524107714610095578063fe4b84df146100aa578063ffa1ad74146100bd575b600080fd5b6000546100699060ff1681565b60405190151581526020015b60405180910390f35b61008760015481565b604051908152602001610075565b6100a86100a3366004610138565b6100c5565b005b6100a86100b8366004610138565b6100d6565b610087600381565b6100d081600a610151565b60015550565b60005460ff16156101245760405162461bcd60e51b81526020600482015260146024820152734f6e6c7920696e697469616c697a65206f6e636560601b604482015260640160405180910390fd5b60019081556000805460ff19169091179055565b60006020828403121561014a57600080fd5b5035919050565b8082018082111561017257634e487b7160e01b600052601160045260246000fd5b9291505056fea264697066735822122096bf87f8a416a6e59a5f9cd129fa9986d4d9d867a7151257a3ac90280d2fa03264736f6c63430008120033",
  "devdoc": {
    "kind": "dev",
    "methods": {},
    "version": 1
  },
  "userdoc": {
    "kind": "user",
    "methods": {},
    "version": 1
  },
  "storageLayout": {
    "storage": [
      {
        "astId": 6,
        "contract": "contracts/Impl/StandardImpl.sol:StandardImpl",
        "label": "initialized",
        "offset": 0,
        "slot": "0",
        "type": "t_bool"
      },
      {
        "astId": 8,
        "contract": "contracts/Impl/StandardImpl.sol:StandardImpl",
        "label": "value",
        "offset": 0,
        "slot": "1",
        "type": "t_uint256"
      }
    ],
    "types": {
      "t_bool": {
        "encoding": "inplace",
        "label": "bool",
        "numberOfBytes": "1"
      },
      "t_uint256": {
        "encoding": "inplace",
        "label": "uint256",
        "numberOfBytes": "32"
      }
    }
  }
}